:020000040800F2
:10000000F8080020D5140008FD020008FF020008CF
:1000100003030008070300080B03000800000000AA
:100020000000000000000000000000000F030008B6
:100030001103000800000000130300081503000866
:10004000EF140008EF140008EF140008EF14000884
:10005000EF140008EF140008EF140008EF14000874
:10006000EF140008EF140008EF140008EF14000864
:10007000EF140008EF140008EF140008EF14000854
:10008000EF140008EF140008EF140008EF14000844
:10009000EF140008EF140008EF140008EF14000834
:1000A000EF140008EF140008EF140008EF14000824
:1000B0003F110008EF140008950E0008EF14000827
:1000C000EF140008EF140008EF140008EF14000804
:1000D000EF14000849140008DB0C0008191300088D
:1000E000EF140008EF140008EF140008EF140008E4
:1000F000EF140008EF140008EF140008EF140008D4
:10010000EF140008EF140008E70F0008EF140008D0
:10011000EF140008EF140008EF140008EF140008B3
:10012000EF140008EF140008EF140008EF140008A3
:1001300000F002F800F03AF80AA090E8000C8244BF
:100140008344AAF10107DA4501D100F02FF8AFF29C
:10015000090EBAE80F0013F0010F18BFFB1A43F0A5
:10016000010318478C3C0000AC3C0000103A24BF4F
:1001700078C878C1FAD8520724BF30C830C144BF0C
:1001800004680C607047000000230024002500264E
:10019000103A28BF78C1FBD8520728BF30C148BFEA
:1001A0000B6070471FB51FBD10B510BD02F0B6FE45
:1001B0001146FFF7F7FF00F073F802F0D4FE03B426
:1001C000FFF7F2FF03BC01F072F8000010B56FF00A
:1001D000040001F0EEF92E4800682E49B0FBF1F062
:1001E0002D4908700846007800EB4001C1EBC010B3
:1001F0004FF6FF7101EAC0002849088010BD014692
:10020000254A12784A434FF0E0235A6100229A614E
:100210001A46126942F001021A6100BF4FF0E02253
:10022000106900F001021AB100F48032002AF5D002
:100230004FF0E022126922F001024FF0E0231A6130
:1002400000229A6170470146144A12884A434FF0CF
:10025000E0235A6100229A611A46126942F00102B3
:100260001A6100BF4FF0E022106900F001021AB1DC
:1002700000F48032002AF5D04FF0E022126922F01B
:1002800001024FF0E0231A6100229A6170470000DA
:100290000400002000127A0000000020020000206C
:1002A000FFF794FF00F028F94FF4A06001F032F955
:1002B0004FF4E13001F07CF84FF4E13000F0A8FF9A
:1002C0004FF4165000F0BCFC002141F6214000F034
:1002D00017FD00F067FD47214FF6FF7000F088FD25
:1002E00047214FF6FF7000F02CFE47214FF6FF70BC
:1002F00000F0D0FE01E000F0B9FAFCE7704700BF63
:10030000FEE700BFFEE700BFFEE700BFFEE7704765
:1003100070477047704700000CB5002001900090B6
:100320006C48006840F480306A49086000BF694842
:10033000006800F4003000900198401C0190009883
:1003400018B90198B0F5A06FF1D16248006800F4C7
:10035000003010B10120009001E0002000900098D2
:10036000012843D15C48006840F010005A490860F9
:100370000846006820F0030008600846006840F066
:100380000200086053484068524948600846406887
:1003900048600846406840F480604860084640680D
:1003A00020F47C1048600846406840F4E81048603B
:1003B0000846006840F08070086000BF454800684B
:1003C00000F000700028F9D04248406820F0030097
:1003D000404948600846406840F00200486000BF5D
:1003E0003C48406800F00C000828F9D10CBD10B55D
:1003F000FFF792FF10BD10B53648006840F00100CD
:10040000344908600846406834490840314948602A
:1004100008460068324908402E49086008460068CE
:1004200020F4802008600846406820F4FE00486000
:100430004FF41F008860FFF7DAFF4FF00060294992
:10044000086010BD10B5002100200022214B5B6820
:1004500003F00C0121B1042906D0082928D107E0B6
:10046000214B224C236027E01F4B204C236023E0CC
:10047000184B5B6803F47010164B5B6803F4803212
:10048000022303EB904022B9194B4343174C2360DE
:100490000DE0104B5B6803F4003323B1144B43436E
:1004A000124C236003E0104B4343104C236003E0E5
:1004B0000D4B0E4C236000BF00BF064B5B68C3F3BF
:1004C00003130C4CE15C094B1B68CB40074C2360C9
:1004D00010BD000000100240002002400000FFF8A4
:1004E000FFFFF6FE08ED00E000127A000400002095
:1004F00000093D000800002008B50121402001F05E
:1005000093FB6020ADF8000010208DF8030003205D
:100510008DF802006946064801F0CAF82021044817
:1005200001F073F94021024801F06FF908BD0000A5
:100530000018014070B505460C467E2D21D07F2D58
:1005400002D0802D5BD13BE0002C05DD0120FE496F
:100550000860FE49087508E0002C06DA0020FA4918
:100560000860FA490875604204B204EBC40000EB6D
:1005700004104FF6FF7202EA8001F54802F084FC95
:100580003DE0002C06DD0120EF49091D0860F1491E
:10059000087509E0002C07DA0020EB49091D086006
:1005A000EC490875604204B204EBC40000EB04108F
:1005B0004FF6FF7202EA8001E54802F067FC1EE098
:1005C000002C06DD0120E04908310860E249087589
:1005D00009E0002C07DA0020DB4908310860DE4919
:1005E0000875604204B204EBC40000EB04104FF63F
:1005F000FF7202EA8001D64802F04AFC00BF00BF49
:1006000070BD2DE9F04105460E461746D3480565F5
:10061000D3480665D348076500242EE0CF49601C07
:1006200051F8200041F82400CD49601C51F8200009
:1006300041F82400CB49601C51F8200041F8240007
:10064000C64850F82410C848006803F06BF9C64942
:100650000860C34850F82410C448006803F062F9E9
:10066000C2490860BF4850F82410C148006803F030
:1006700059F9BF490860601CC4B2142CCEDBBD49D7
:10068000B948006803F0B0F9B0498860B949B74883
:10069000006803F0A9F9AF498860B649B44800681A
:1006A00003F0A2F9AC4988600020AF490860AF4967
:1006B0000860AF490860BDE8F0812DE9F05F814630
:1006C0008A4614462146AC4803F050FA0646AB4928
:1006D000484603F04BFA074651464FF03F4003F0BF
:1006E00045FA8046394603F01DF90546314603F0C8
:1006F00019F99649086021469F4803F037FA0646E3
:100700009E49484603F032FA074651464FF03F40B3
:1007100003F02CFA8046394603F0F4FA05463146D8
:1007200003F000F98B4908602146934803F01EFA54
:100730000546514603F0F6F8874908608349086882
:100740008F4903F013FA834603F0C0F807468D4A39
:100750008D4B02F0F9FC81F00041054602F088FE65
:100760007A4948607B490868854903F0FFF9834668
:1007700003F0ACF80746834A834B02F0E5FC81F0B6
:100780000041054602F074FE7249486072490868EB
:100790007B4903F0EBF9834603F098F80746794A62
:1007A000794B02F0D1FC81F00041054602F060FE79
:1007B000694948606548808801B27F20FFF7BAFE2A
:1007C0006448808801B27E20FFF7B4FE62488088CA
:1007D00001B28020FFF7AEFEBDE8F09F10B50446E1
:1007E000682C02D1012069490870692C02D10020CF
:1007F0006649087065480078012836D1A4F1610087
:10080000072831D2DFE800F0040A10161C232A0062
:10081000002211465E48FFF750FF25E000221146F6
:100820005C48FFF74AFF1FE0002259491046FFF7D6
:1008300044FF19E0002257491046FFF73EFF13E03E
:100840004FF07C5200210846FFF737FF0CE04FF0D5
:100850003F4200210846FFF730FF05E00022114625
:100860001046FFF72AFF00BF00BF10BD2DE9F04F73
:1008700087B03648007B00F08000002839D033492B
:10088000097B01F03F01C1EB0141304AD289881850
:1008900002F01DFE0646404A404B02F02FFE044681
:1008A00002F06CFB29498860886803F00FF88046E5
:1008B00000223B4B02F022FE064632460B463948E8
:1008C000394902F041FC044602F058FB1F49886098
:1008D0000846007D002803DD08468068886005E042
:1008E0001A48806880F00040184988600020174945
:1008F00008731848007B00F0800000286CD0154970
:10090000097B01F03F01C1EB0141124AD2898818ED
:1009100002F0DDFD0646204A204B02F0EFFD0446C2
:1009200002F02CFB0B498860886802F0CFFF064676
:1009300000221B4B02F0E2FD804642460B4619485E
:10094000194902F001FC31E08001224254010020EB
:10095000000400406C0100208401002058000020A9
:10096000AC00002000010020180000201C00002026
:10097000200000200000A0418941603EEC51383F3A
:10098000000010424E62105839B4D83F24000020B5
:10099000CDCCCC3ECDCCCCBE8DEDB5A0F7C6B03E17
:1009A0000000104027A089B0E1E9853F044602F02D
:1009B000E5FA8D4988600846007D002803DD084679
:1009C0008068886005E08848806880F0004086493B
:1009D00088600020844908738448007B00F0800010
:1009E000002839D08149097B01F03F01C1EB014169
:1009F0007E4AD289881802F06AFD06467C4A7D4B01
:100A000002F07CFD044602F0B9FA784988608868F3
:100A100002F05CFF80460022774B02F06FFD064635
:100A200032460B467548764902F08EFB044602F0CA
:100A3000A5FA6E4988600846007D002803DD084657
:100A40008068886005E06948806880F000406749F8
:100A500088600020654908736A48406818B900201A
:100A60006849886002E00020674908705E48406875
:100A700018B900205C49886002E0002062490870D3
:100A80005A48406818B900205849886002E00020A0
:100A90005D4908705D485E4908605349886802F006
:100AA00015FF82468B465749886802F00FFF0446BF
:100AB0000D464E49886802F009FF064600224FF0B5
:100AC000804302F01BFD804622462B4602F014FEB6
:100AD00052465B46CDE9000102F00EFE81F0004176
:100AE00000224C4BCDE9020102F02EFBCDE90401BE
:100AF00002F044FA464988603B4A9168414A90684E
:100B000003F000F980F00044204602F0DFFE0746C3
:100B1000414A424B02F018FB054602F02FFA3C49CD
:100B20004860314A9168374A906802F0FBFE0546FA
:100B30002E488168284602F0F5FE80F000443849CE
:100B4000204602F051FF3249C86000203549087044
:100B50000AE02F49334A1278885C00F0B7FB31482D
:100B60000078401C2F4908702E4800781028F0DBD0
:100B70002D480078FFF732FE2C48007830B92C4819
:100B8000002102682B480068FFF797FD204948685C
:100B900002F09CFE06460022274B02F0AFFC044602
:100BA00002F0ECF9254908601949886802F08EFEC8
:100BB00006460022204B02F0A1FC044602F0DEF9BA
:100BC0001E4948601249C86802F080FE06460022AD
:100BD000194B02F093FC044602F0D0F917498860E3
:100BE00007B0BDE8F08F00006C01002084010020F8
:100BF0008DEDB5A0F7C6B03E0000104027A089B02B
:100C0000E1E9853F540100202600002000007841E2
:100C10009C01002000000840DF4F8D976E12F73FC7
:100C20002731283F250000202C0000202400002030
:100C30003C0000203800002000005940BC0100208A
:100C400010B586B004460121042000F0EDFF01211B
:100C5000480400F0F6FF0420ADF8140003208DF8DE
:100C6000160018208DF8170005A9224800F020FD75
:100C70000820ADF8140004208DF8170005A91D48C0
:100C800000F016FD26208DF8000003208DF80100ED
:100C90008DF8020001208DF80300684600F03FFC4B
:100CA00001940020ADF80800ADF80A00ADF80C0082
:100CB000ADF810000C20ADF80E0001A90E4801F0AF
:100CC0005AF8012240F225510B4801F0ECF80121BD
:100CD000094801F0DCF806B010BD10B540F225510E
:100CE000054801F0C5F920B1034801F041F9034975
:100CF000087010BD00080140004400402C00002096
:100D000030B589B005460C460121022000F099FF5C
:100D10000121112000F088FF0121324800F099FDE7
:100D20004FF4E070ADF8200018208DF82300032068
:100D30008DF8220008A92C4800F0BAFCADF8185034
:100D4000ADF814400020ADF81A00ADF8160005A962
:100D5000264801F0A5FA7020ADF804000120ADF896
:100D600006000220ADF80C0001A9204801F0D5FAD8
:100D700001A91E4801F013FB01A91C4801F05CFB0E
:100D800008211A4801F018FF0821184801F01DFF3A
:100D90000821164801F026FF0121144801F0DCFD6E
:100DA00009B030BD08B50121102000F03DFF07203B
:100DB000ADF8000010208DF8030003208DF802002C
:100DC0006946094800F074FC0221074800F01DFD47
:100DD0000421054800F019FD0121034800F015FD2C
:100DE00008BD0000000C1A00001001400004004083
:100DF00030B589B005460C460121042000F021FFE2
:100E00000121082000F010FF4020ADF81400282038
:100E10008DF8170005A9F74800F04AFC4021F54875
:100E200000F0F5FCADF80C50ADF808400020ADF82E
:100E30000E00ADF80A0002A9EF4801F031FA0020D7
:100E4000ADF81800ADF81A000120ADF81C00002024
:100E5000ADF81E00ADF8200006A9E74801F0B3FC8C
:100E60001E208DF8040002208DF8050000208DF86A
:100E7000060001208DF8070001A800F050FB0122B8
:100E80000321DD4801F083FD0121DB4801F064FD11
:100E900009B030BD10B5D948007B00F080000028B3
:100EA0004AD10121D44802F020F8C8B1D348007BD0
:100EB00000F04000A0B1D148007B00F03F003F2887
:100EC00009D1CE48007B40F08000CC4908734FF632
:100ED000FF70C88104E0C948007B401CC749087303
:100EE0000221C54802F001F830B3C448007B00F08D
:100EF000400078B1C148007B40F08000BF490873D2
:100F0000BD4801F0D3FFBD49C8810021BA4801F0B6
:100F1000D5FE11E00020B9490873C8810021B64808
:100F200001F0AEFFB548007B40F04000B3490873C4
:100F30000221B14801F0C2FE0321AF4801F0E6FFF3
:100F400010BD30B589B005460C460121082000F0DF
:100F500078FE0121042000F067FE0120ADF81400A6
:100F600028208DF8170005A9A54800F0A1FB012154
:100F7000A34800F04CFCADF80C50ADF80840002040
:100F8000ADF80E00ADF80A0002A99E4801F088F9FC
:100F90000020ADF81800ADF81A000120ADF81C00D3
:100FA0000020ADF81E00ADF8200006A9954801F01C
:100FB0000AFC32208DF8040002208DF80500002084
:100FC0008DF8060001208DF8070001A800F0A7FAAF
:100FD000012203218B4801F0DAFC0121894801F04C
:100FE000BBFC09B030BD10B58748007B00F0800025
:100FF00000284AD10121834801F077FFC8B1824817
:10100000007B00F04000A0B17F48007B00F03F0073
:101010003F2809D17C48007B40F080007A49087362
:101020004FF6FF70C88104E07748007B401C76498A
:1010300008730221734801F058FF30B37248007BF7
:1010400000F0400078B17048007B40F080006E49AD
:1010500008736C4801F02AFF6B49C8810021694878
:1010600001F02CFE11E0002067490873C8810021BF
:10107000644801F005FF6448007B40F0400062498D
:10108000087302215F4801F019FE03215D4801F059
:101090003DFF10BD30B589B005460C46012108461C
:1010A00000F0CFFD0121042000F0BEFD0220ADF8CC
:1010B000140028208DF8170005A9514800F0F8FA0F
:1010C00002214F4800F0A3FBADF80C50ADF80840EA
:1010D0000020ADF80E00ADF80A0002A94FF08040E4
:1010E00001F0DEF80420ADF818000020ADF81A0079
:1010F0000120ADF81C000020ADF81E00ADF8200066
:1011000006A94FF0804001F05EFB1C208DF8040022
:1011100002208DF8050000208DF8060001208DF8D2
:10112000070001A800F0FBF901220521880701F062
:101130002EFC0121880701F00FFC09B030BD10B56D
:101140003248007B00F0800000284DD10121880743
:1011500001F0CBFEC8B12D48007B00F04000A0B1EB
:101160002A48007B00F03F003F2809D12748007B38
:1011700040F08000254908734FF6FF70C88104E0F5
:101180002248007B401C214908730421080701F014
:10119000ACFE48B31D48007B00F0400088B11B48FE
:1011A000007B40F08000194908734FF0804001F047
:1011B00080FE1649C88100214FF0804001F090FD6B
:1011C00012E0002011490873C88100214FF08040CF
:1011D00001F056FE0D48007B40F040000B490873BB
:1011E0000221480701F07CFD0521880701F08EFEF1
:1011F00010BD0000000C0140000800405401002018
:1012000000080140000C00406C0100208401002017
:1012100010B586B004460121082000F005FD01212B
:10122000880400F00EFD4FF48060ADF81400032038
:101230008DF8160018208DF8170005A9524800F007
:1012400037FA4FF40060ADF8140004208DF8170051
:1012500005A94D4800F02CFA27208DF80000032046
:101260008DF801008DF8020001208DF8030068461A
:1012700000F055F901940020ADF80800ADF80A001F
:10128000ADF80C00ADF810000C20ADF80E0001A96F
:101290003E4800F070FD012240F225513B4800F02D
:1012A00002FE0121394800F0F2FD06B010BD0146F2
:1012B00000BF704700BF354A128802F04002002A82
:1012C000F9D0C2B2314B1B1D1A80704710B50446CD
:1012D00000BF40212D4800F0B5FE0028F9D021467E
:1012E0002A4800F041FE10BD70B504460D460320AB
:1012F000FFF7ECFFFC20FFF7E9FF04E02078FFF7A1
:10130000E5FF641C6D1E002DF8D1FC20FFF7DEFF09
:101310000320FFF7DBFF70BD70B540F225511B487D
:1013200000F0A6FE70B3194800F022FE18490870BC
:10133000084600781749184A1288885416480088C9
:10134000102802D100201449088013480088401C4E
:10135000114908800F49086802F0B8FA04460022D3
:101360000E4B02F049F80DD10D480068C0430D49FD
:10137000C1F89401074840680B4908600548C068F7
:101380000A49086070BD0000000C014000480040A0
:1013900036000020AC0100203400002000002F4067
:1013A0009401234200002342380000203C0000202A
:1013B00010B586B00446012144F2040000F034FC6C
:1013C0004FF40070ADF8140003208DF816001820BB
:1013D0008DF8170005A93B4800F06AF94FF48060CA
:1013E000ADF8140004208DF8170005A9354800F069
:1013F0005FF925208DF8000003208DF801008DF89D
:10140000020001208DF80300684600F088F801947E
:101410000020ADF80800ADF80A00ADF80C00ADF8FA
:1014200010000C20ADF80E0001A9274800F0A3FC25
:10143000012240F22551244800F035FD01212248C7
:1014400000F025FD06B010BD10B540F225511E4834
:1014500000F00EFE10B31C4800F08AFDC4B21B4819
:10146000008800F40040C8B91848008800F48040A3
:1014700060B10A2C03D000201449088020E01348F2
:10148000008840F400401149088019E00D2C06D175
:101490000E48008840F480400C49088010E00B485A
:1014A0000088C0F30D000A490C5408480088401C0D
:1014B0000649088008460088C72801DD002008800A
:1014C00010BD00000008014000380140400000202D
:1014D000CC0100200948804709480047FEE7FEE7A5
:1014E000FEE7FEE7FEE7FEE7FEE7FEE7FEE7FEE7D4
:1014F00004480549054A064B70470000F7030008F9
:1015000031010008F8020020F8080020F80400204B
:10151000F804002031490143314A1160704770B529
:10152000002100230F22C47804B32D4C246804F456
:10153000E064C4F5E064210AC1F10403CA404478C0
:1015400004FA03F18478144021430901254C0678FC
:10155000A155047804F01F050124AC4005786D11F5
:10156000AD0005F1E025C5F8004109E0047804F07C
:101570001F050124AC401C4D0678761145F8264025
:1015800070BD1A4A0A400243154B1B1F1A60704770
:1015900039B1134A121D12680243114B1B1D1A6008
:1015A00006E00F4A121D126882430D4B1B1D1A6084
:1015B0007047042808D14FF0E021096941F0040187
:1015C0004FF0E022116107E04FF0E021096921F0BE
:1015D00004014FF0E0221161704700000000FA059D
:1015E0000CED00E000E400E080E100E080FFFF1F80
:1015F00010B50446CC48844208D10121042000F0F3
:101600002DFB0021042000F029FB46E0C74884425E
:1016100008D10121082000F021FB0021082000F062
:101620001DFB3AE0C248844208D10121102000F09D
:1016300015FB0021102000F011FB2EE0BD48844274
:1016400008D10121202000F009FB0021202000F01A
:1016500005FB22E0B848844208D10121402000F077
:10166000FDFA0021402000F0F9FA16E0B348844268
:1016700008D10121802000F0F1FA0021802000F043
:10168000EDFA0AE0AE48844207D10121801500F04E
:10169000E5FA0021A01500F0E1FA10BD10B5012116
:1016A000084600F0DBFA0021012000F0D7FA10BD57
:1016B0002DE9F041024600250026002000230024E9
:1016C000002791F803C00CF00F0591F803C00CF04F
:1016D000100CBCF1000F03D091F802C04CEA0505D4
:1016E00091F800C0BCF1000F31D0146800202BE04D
:1016F0004FF0010C0CFA00F3B1F800C00CEA03063D
:101700009E4220D183004FF00F0C0CFA03F7BC432C
:1017100005FA03FC4CEA040491F803C0BCF1280F5D
:1017200006D14FF0010C0CFA00FCC2F814C00AE01C
:1017300091F803C0BCF1480F05D14FF0010C0CFA31
:1017400000FCC2F810C0401C0828D1D31460B1F8C6
:1017500000C0BCF1FF0F34DD546800202EE000F122
:10176000080C4FF0010808FA0CF3B1F800C00CEABD
:1017700003069E4221D183004FF00F0C0CFA03F7B1
:10178000BC4305FA03FC4CEA040491F803C0BCF125
:10179000280F05D100F1080C08FA0CF8C2F81480E3
:1017A00091F803C0BCF1480F07D100F1080C4FF0CD
:1017B000010808FA0CF8C2F81080401C0828CED3A3
:1017C0005460BDE8F0814FF6FF7101800221817005
:1017D0000421C17070470246002093680B400BB192
:1017E000012000E0002070470146886880B2704701
:1017F00002460020D3680B400BB1012000E000201E
:1018000070470146C86880B2704701617047416106
:1018100070470AB1016100E041617047C1607047E3
:101820004FF480320A4382618161826182698269F8
:10183000704702460020434B18684FF680731840EB
:1018400040EA021008433F4B186070473E49C861A8
:101850007047F0B50A46002300240021002500F05F
:101860000046B6F1004F02D1364EF16901E0354E27
:101870007168C0F3034583B200F44016B6F5401F0B
:1018800008D121F070612F4E766826F070662D4FDA
:101890007E6012E000F48016B6F5801F06D10326A4
:1018A00006FA05F4A14341F0706106E0460D3601E9
:1018B00003FA06F6B14341F0706122B1460D3601DC
:1018C00003FA06F6314300F00046B6F1004F02D1AC
:1018D0001C4EF16101E01B4E7160F0BD30B500227D
:1018E0008B071C0F0F2303FA04F2164B08338C10DE
:1018F00053F824309343134C08348D1044F82530AA
:1019000023468C1053F824308C07240F00FA04F47B
:1019100023430C4C08348D1044F8253030BD0A495F
:10192000DC3108607047000000080140000C0140F5
:10193000001001400014014000180140001C01404B
:10194000002001400000014000002042DF48006804
:1019500040F00100DD49086008464068DC49084065
:10196000DA49486008460068DA490840D749086003
:101970000846006820F4802008600846406820F48B
:10198000FE0048604FF41F0088607047CF49096827
:1019900021F48031CD4A11601146096821F480217B
:1019A0001160B0F5803F03D0B0F5802F0ED106E076
:1019B000C649096841F48031C44A116007E0C3494F
:1019C000096841F4A021C14A116000E000BF00BFD6
:1019D000704710B501460022002300204A11012A59
:1019E00002D1BA4C236806E0022A02D1B74C236A1E
:1019F00001E0B64C636A01F01F02012494401C40D0
:101A00000CB1012000E0002010BD38B5002000908E
:101A10000024002500BF3120FFF7DBFF05460098BA
:101A2000401C00900098B0F5A06F01D0002DF2D0BE
:101A30003120FFF7CEFF08B1012400E0002420464A
:101A400038BD01460020A14A106820F0F80040EAA5
:101A5000C10010607047A04908607047024600202E
:101A60009A4B586820F47C1042EA01031843974BC4
:101A70005860704798490866704701460020934AAD
:101A8000506820F003000843506070478F4840685A
:101A900000F00C007047014600208C4A506820F08E
:101AA000F00008435060704701460020874A5068A4
:101AB00020F4E06008435060704701460020834AEC
:101AC000506820F4605040EAC1005060704729B16E
:101AD0007E4A527A02437D4B5A7204E07B4A527A24
:101AE00082437A4B5A7270477B49D83108607047FD
:101AF00001460020754A506820F440400843506079
:101B000070470021714A20321170704A82F820100B
:101B1000012802D004280AD104E001216B4A2032B6
:101B2000117005E00521694A2032117000E000BF04
:101B300000BF70476949086070476449096A0143FA
:101B4000624A11627047654944390860704730B590
:101B500000210022002400235C4D6D6805F00C017B
:101B600021B1042905D0082923D105E05C4D056089
:101B700022E05B4D05601FE0544D6D6805F4701266
:101B8000524D6D6805F48034022505EB92421CB974
:101B9000544D554305600BE04C4D6D6805F4003520
:101BA0001DB1504D5543056002E04D4D5543056054
:101BB00002E04B4D056000BF00BF444D6D6805F06D
:101BC000F0010909484D6B5C0568DD4045603F4DFB
:101BD0006D6805F4E061090A434D6B5C4568DD40C2
:101BE00085603A4D6D6805F46051C90A3E4D6B5CE5
:101BF0004568DD40C560354D6D6805F44041890B91
:101C00003A4D6B5CC568B5FBF3F5056130BD29B194
:101C10002E4A526902432D4B5A6104E02B4A526905
:101C200082432A4B5A61704729B1284A926902437C
:101C3000264B9A6104E0254A92698243234B9A61BC
:101C4000704729B1214AD2690243204BDA6104E08E
:101C50001E4AD26982431D4BDA61704729B11B4A83
:101C6000D2680243194BDA6004E0184AD268824312
:101C7000164BDA60704729B1144A12690243134BBC
:101C80001A6104E0114A12698243104B1A617047CD
:101C900012494039086070470F49C86470470B49C2
:101CA000C87170470948406A40F08070074948622F
:101CB000704701460020054A92680A400AB1012097
:101CC00000E0002070470149887270470010024010
:101CD0000000FFF8FFFFF6FE00004242800442428F
:101CE00000127A0000093D0042000020520000204E
:101CF00010B50446FB48844209D101218803FFF74F
:101D0000ADFF00214FF48040FFF7A8FF32E0F64816
:101D1000844209D101214804FFF7ADFF00214FF4AF
:101D20000030FFF7A8FF25E0F048844209D10121E7
:101D30008804FFF7A0FF00214FF48020FFF79BFFEE
:101D400018E0EB48844209D10121C804FFF793FF52
:101D500000214FF40020FFF78EFF0BE0E54884429E
:101D600008D101210805FFF786FF00214FF48010FC
:101D7000FFF781FF10BD2DE9F04786B005460E46FE
:101D80000024A24600BFA1460027B08900B100BFD1
:101D90002F462C8A4CF6FF700440F08804432C82B6
:101DA000AC894EF6F3100440B0883189084371893C
:101DB00008430443AC81AC8A4FF6FF400440B0892D
:101DC0000443AC8201A8FFF7C2FEC648874202D195
:101DD000DDF810A001E0DDF80CA0A88900F40040B7
:101DE00040B10AEBCA0000EB0A1031684900B0FBB1
:101DF000F1F807E00AEBCA0000EB0A10316889002D
:101E0000B0FBF1F86420B8FBF0F004012009642174
:101E100001FB1089A88900F4004040B1322000EB9A
:101E2000C900B0FBF1F000F00700044308E03220E5
:101E300000EB09106421B0FBF1F000F00F00044347
:101E40002C8106B0BDE8F0874FF4165101600021E7
:101E50008180C18001810C214181002181817047F5
:101E600010B502460020108A4FF2FF0318400B887D
:101E70004C8823438C882343CC8823431843108207
:101E800010BD0021018041808180C180704721B157
:101E9000828942F40052828104E082894DF6FF7308
:101EA0001A4082817047F0B50346002400260025C1
:101EB000002040F66A17B94200D100BF1846C1F3AE
:101EC000421401F01F06012707FA06F5012C01D183
:101ED0000C3004E0022C01D1103000E014301AB1B3
:101EE00007682F43076002E00768AF430760F0BD53
:101EF0001AB1838A0B43838202E0838A8B438382F5
:101F00007047028A4FF6F0731A400282028A0A432F
:101F10000282704782894FF2FF731A408281828960
:101F20000A438281704721B1828942F00202828194
:101F300004E082894FF6FD731A4082817047028A5D
:101F40004FF6DF731A400282028A0A430282704708
:101F500021B1028A42F48042028204E0028A4BF6F6
:101F6000FF731A4002827047C1F3080282807047F3
:101F700001468888C0F308007047818941F001015B
:101F800081817047028BD2B20283028B42EA012226
:101F900002837047028B02F47F420283028B0A4362
:101FA0000283704721B1828A42F02002828204E0DB
:101FB000828A4FF6DF731A408282704721B1828A8B
:101FC00042F01002828204E0828A4FF6EF731A40D8
:101FD0008282704721B1828A42F00802828204E044
:101FE000828A4FF6F7731A408282704721B1828944
:101FF00042F40042828103E08289C2F30E028281B0
:10200000704721B1828A42F40062828204E0828AAF
:102010004FF2FF731A4082827047828A4FF6FB7339
:102020001A408282828A0A438282704721B1828A60
:1020300042F00202828204E0828A4FF6FD731A4067
:102040008282704702460020B1F5007F00D100BFB8
:1020500013880B400BB1012000E00020704701F411
:102060000072B2F5007F00D100BFCA430280704702
:1020700070B50246002400230025002040F66A16B1
:10208000B14200D100BFC1F3421501F01F03012688
:1020900006FA03F3012D02D19689334006E0022DA2
:1020A00002D1168A334001E0968A33400C12012691
:1020B00006FA04F41688344013B10CB1012000E094
:1020C000002070BD10B50022002340F66A14A14222
:1020D00000D100BF0A1201249440A3B2DC43048063
:1020E00010BD00000038014000440040004800409E
:1020F000004C00400050004010B50446FE488442A9
:1021000008D10121C014FFF7A9FD0021E014FFF759
:10211000A5FDC4E0B4F1804F08D101210846FFF7C6
:10212000AAFD00210120FFF7A6FDB8E0F348844294
:1021300008D101210220FFF79EFD00210220FFF7B8
:102140009AFDACE0EE48844208D101210420FFF75B
:1021500092FD00210420FFF78EFDA0E0E9488442B3
:1021600008D101210820FFF786FD00210820FFF794
:1021700082FD94E0E448844208D101211020FFF759
:102180007AFD00211020FFF776FD88E0DF488442C9
:1021900008D101212020FFF76EFD00212020FFF74C
:1021A0006AFD7CE0DA48844208D101214014FFF73F
:1021B00055FD00216014FFF751FD70E0D5488442C1
:1021C00009D10121C804FFF749FD00214FF4002087
:1021D000FFF744FD63E0D048844209D1012108059E
:1021E000FFF73CFD00214FF48010FFF737FD56E06C
:1021F000CA48844209D101214805FFF72FFD00217B
:102200004FF40010FFF72AFD49E0C548844208D189
:1022100001214020FFF72FFD00214020FFF72BFD7B
:102220003DE0C048844208D101218020FFF723FD12
:1022300000218020FFF71FFD31E0BB48844208D118
:1022400001218015FFF717FD0021A015FFF713FDF1
:1022500025E0B648844209D101210804FFF7FEFCBD
:1022600000214FF48030FFF7F9FC18E0B0488442B9
:1022700009D101214804FFF7F1FC00214FF400309F
:10228000FFF7ECFC0BE0AB48844208D10121880445
:10229000FFF7E4FC00214FF48020FFF7DFFC10BDC6
:1022A00000220288944B98420ED0994B98420BD052
:1022B000B0F1804F08D0914B984205D0904B984296
:1022C00002D0904B984204D14FF68F731A404B883E
:1022D0001A438D4B984207D08C4B984204D04FF64E
:1022E000FF431A40CB881A4302808B8883850B8872
:1022F0000385814B98420BD0854B984208D08B4B7D
:10230000984205D08A4B984202D08A4B984201D11C
:102310000B7A038601238382704770B50024002264
:102320000023058C4FF6FE7635400584028C8388A9
:10233000048B4FF68F752C40B51E2C400D882C4316
:10234000751E2A400D892A434D882A436A4DA842AA
:102350000BD06F4DA84208D0744DA84205D0744DE3
:10236000A84202D0734DA84213D14FF6F7752A4008
:102370004D892A434FF6FB752A408D882A434FF634
:10238000FF652B404FF6FF552B408D892B43CD89A0
:102390002B4383800483CD888586028470BD70B50D
:1023A000002400220023058C4FF6EF76354005848B
:1023B000028C8388048B48F6FF752C404FF6FF454E
:1023C0002C400D884FF6FF7606EA05252C434FF684
:1023D000DF752A400D8906EA05152A434D8806EA6D
:1023E00005152A43444DA84202D0494DA8421DD1AB
:1023F0004FF67F752A404D894FF6FF7606EA0515A0
:102400002A434FF6BF752A408D8806EA05152A43F0
:102410004FF6FF352B404FF2FF752B408D8906EAB2
:1024200085052B43CD8906EA85052B4383800483EC
:10243000CD880587028470BD70B50024002200237A
:10244000058C4FF6FF6635400584028C8388848BAB
:102450004FF68F752C404FF6FC752C400D882C43A1
:102460004FF6FF552A400D894FF6FF7606EA0525FF
:102470002A434D8806EA05252A431F4DA84202D06B
:10248000234DA8421DD14FF2FF752A404D894FF6CA
:10249000FF7606EA05252A434FF6FF352A408D8848
:1024A00006EA05252A434EF6FF752B404DF6FF75CB
:1024B0002B408D8906EA05152B43CD8906EA0515C3
:1024C0002B4383808483CD888587028470BD70B55B
:1024D000002200230024058C4EF6FF76354005844B
:1024E000038C8488828B48F6FF752A404FF6FF459F
:1024F0002A400D8820E00000002C0140000400402C
:1025000000080040000C0040001000400014004093
:1025100000340140004C0140005001400054014093
:1025200000180040001C0040002000400040014016
:1025300000440140004801404FF6FF7606EA0525B9
:102540002A434DF6FF752B400D8906EA05352B43CE
:102550004D8806EA05352B43FA4DA84202D0FA4DC4
:10256000A84208D14BF6FF752C408D894FF6FF76B7
:1025700006EA85152C4384808283CD88A0F84050DC
:10258000038470BD828B4FF2FF331A408283828BAB
:102590004FF6FF7303EA01231A4382837047F0B5B5
:1025A0000C461546002200210026078C4EF6FF7CC3
:1025B00007EA0C070784828B018C4FF6FF7707EA46
:1025C000043640F6FF473A404FF6FF7707EA052703
:1025D0003A434FF6FF7707EA03373A43D94FB842F9
:1025E0000ED0D94FB8420BD0B0F1804F08D0D74FA2
:1025F000B84205D0D64FB84202D0D64FB84206D125
:102600004DF6FF77394046F48057394305E047F6E9
:10261000FF57394044F48057394382830184F0BD29
:10262000828B4FF6F3731A408283828B0A43828334
:102630007047F0B50C461546002200210026078C95
:102640004FF6FF6C07EA0C070784828B018C4FF66C
:10265000FF7707EA04264FF60C773A404FF6FF77EC
:1026600007EA03172F433A43B64FB8420ED0B64F8E
:10267000B8420BD0B0F1804F08D0B44FB84205D06B
:10268000B34FB84202D0B34FB84206D14FF6FF570E
:10269000394046F48077394305E04FF2FF5739401F
:1026A00044F48077394382830184F0BD028B4FF27A
:1026B000FF331A400283028B4FF6FF7303EA0123B4
:1026C0001A4302837047F0B50C46154600220021DC
:1026D0000026078C4FF6EF7C07EA0C070784028B75
:1026E000018C4FF6FF7707EA041640F6FF473A40A1
:1026F0004FF6FF7707EA03373A434FF6FF7707EACB
:1027000005273A438F4FB8420ED08F4FB8420BD0B7
:10271000B0F1804F08D08D4FB84205D08C4FB842F1
:1027200002D08C4FB84206D14FF6DF77394046F0E1
:102730001007394305E04FF65F77394044F0100742
:10274000394302830184F0BD028B4FF6F3731A40C4
:102750000283028B0A4302837047F0B50C4615468C
:1027600000220021068C4FF6FE773E400684028B45
:10277000018C4FF60C7632407E1C06EA03162E437F
:102780003243704EB0420ED06F4EB0420BD0B0F11B
:10279000804F08D06D4EB04205D06D4EB04202D091
:1027A0006C4EB04206D14FF6FD76314044F0010642
:1027B000314305E04FF6F576314044F001063143F0
:1027C00002830184F0BD70B505460C465D48854224
:1027D0000ED05D4885420BD0B5F1804F08D05B48E4
:1027E000854205D05A48854202D05A48854200D1D8
:1027F00000E000BF208850B92389A288618828465C
:10280000FFF7ABFFE1882846FFF79EFF25E0208811
:1028100004280AD12389A28861882846FFF753FF3C
:10282000E1882846FFF742FF17E0208808280AD1F0
:102830002389A28861882846FFF7FBFEE1882846A5
:10284000FFF7EEFE09E02389A28861882846FFF79A
:10285000A6FEE1882846FFF795FE70BD2DE9F04100
:1028600005460C4600260127608808B9022600E0CC
:102870000026A088012801D1022700E00127208836
:10288000A0B92389A28861882846FFF766FFE188FE
:102890002846FFF759FF23893A4631462846FFF775
:1028A00012FFE1882846FFF701FF13E02389A28881
:1028B00061882846FFF707FFE1882846FFF7F6FE04
:1028C00023893A4631462846FFF747FFE1882846E4
:1028D000FFF73AFFBDE8F0810A884B881A438B88DE
:1028E0001A43CB881A430B891A434B891A438B89A5
:1028F0001A43A0F8442070474FF6FF7181800021F1
:102900000180C180418001727047002101804180B7
:102910008180C180018141818181C1817047002115
:1029200001804180012181800021C18001817047A7
:102930000021018041808180C180018141818181AC
:1029400070470000002C01400034014000040040AA
:1029500000080040000C004021B1028842F0010252
:10296000028004E002884FF6FE731A40028070472E
:1029700031B1B0F8442042F40042A0F8442005E010
:10298000B0F84420C2F30E02A0F8442070471AB1F8
:1029900083890B43838102E083898B438381704762
:1029A0008182704741EA0203A0F8483070471AB1AB
:1029B00083890B43838102E083898B438381704742
:1029C00001894FF6F8721140018170470A460021D3
:1029D00001894FF68F73194011430181704730B55B
:1029E00004460D4629462046FFF7F0FF208940F0B7
:1029F0000700208130BD2DE9F04104460D46164602
:102A00001F46602D06D13B46012231462046FFF786
:102A10005AFE05E03B46012231462046FFF79DFE67
:102A200029462046FFF7D2FF208940F00700208189
:102A3000BDE8F08130B50C4600210189C9B24FF6DE
:102A4000FF7505EA0325154325432943018130BD60
:102A50002DE9F04105460E461746984600244346A8
:102A60003A4631462846FFF7E5FF2C894FF6F870C5
:102A7000044044F007044FF68F70044044F07004A3
:102A80002C81BDE8F081F0B504460D4616461F4680
:102A90003B46324629462046FFF7CCFF208940F4CA
:102AA00080402081F0BD0185828270470A46002166
:102AB00001884FF68F731940114301807047F0B5BC
:102AC0000C4615461E460021002200230189028B78
:102AD000038C4FF6F877394021434FF6FC473A40D4
:102AE00040F201173A434FF6DD773B404FF6FF7750
:102AF00007EA06172F433B43018102830384F0BD9D
:102B00000A460021018B4FF68F7319401143018350
:102B100070470A460021018B48F6FF7319404FF6B3
:102B2000FF7303EA02231943018370470A46002119
:102B3000818B4FF68F7319401143818370470A468A
:102B40000021818B48F6FF7319404FF6FF7303EAAB
:102B5000022319438183704721B1028842F0800229
:102B6000028004E002884FF67F731A4002807047AB
:102B700021B1828842F00402828004E082884FF60C
:102B8000FB731A408280704721B1828842F00802AC
:102B9000828004E082884FF6F7731A408280704783
:102BA00021B1828842F00102828004E082884FF6DF
:102BB000FE731A40828070470A460021018B4FF64F
:102BC000F77319401143018370470A460021018BB6
:102BD0004FF2FF7319404FF6FF7303EA02231943C4
:102BE000018370470A460021818B4FF6F773194025
:102BF0001143818370470A460021818B4FF2FF7396
:102C000019404FF6FF7303EA02231943818370478B
:102C10000A460021018B4FF6FB73194011430183D3
:102C200070470A460021018B4FF6FF3319404FF6DB
:102C3000FF7303EA02231943018370470A46002108
:102C4000818B4FF6FB7319401143818370470A460D
:102C50000021818B4FF6FF3319404FF6FF7303EAD3
:102C600002231943818370470A460021018B4FF6E6
:102C70007F7319401143018370470A460021018B7D
:102C8000C1F30E014FF6FF7303EA022319430183D8
:102C900070470A460021818B4FF67F73194011431C
:102CA000818370470A460021818BC1F30E014FF6E4
:102CB000FF7303EA02231943818370470A46002108
:102CC000018C4FF6FD7319401143018470470A4689
:102CD0000021018C4FF6F7731940114301847047AE
:102CE0000A460021018C4FF6DF7319404FF6FF733F
:102CF00003EA02131943018470470A460021018C3C
:102D00004FF67F7319404FF6FF7303EA021319431E
:102D1000018470470A460021018C4FF6FF53194089
:102D20004FF6FF7303EA02231943018470470A46F2
:102D30000021018C4FF2FF7319404FF6FF7303EA35
:102D400002231943018470470A460021018C4DF685
:102D5000FF7319404FF6FF7303EA023319430184EE
:102D6000704730B5002301248C40A3B2048C9C43EF
:102D70000484048C02FA01F5ADB22C43048430BD06
:102D800030B5002304248C40A3B2048C9C430484FB
:102D9000048C02FA01F5ADB22C43048430BD70B549
:102DA0000346002000241846183001258D40ACB29F
:102DB0001D8CA5431D8409B1082909D100EB6100D0
:102DC000056825F0700505600568154305600EE08F
:102DD0000D1FC5F34E052844056825F4E045056040
:102DE00005684FF6FF7606EA02263543056070BD9A
:102DF00021B1028842F00202028004E002884FF60C
:102E0000FD731A400280704721B1028842F004022B
:102E1000028004E002884FF6FB731A40028070477C
:102E200021B1828842F08002828004E082884FF6DD
:102E30007F731A408280704702884FF6F7731A40FA
:102E4000028002880A430280704782884FF68F739F
:102E50001A40828082880A438280704702894FF636
:102E6000F8731A40028102890A430281704702897D
:102E70004FF67F731A40028102890A43028170472C
:102E800081847047818570478186704701877047CC
:102E900081877047A0F84010704702884FF6FF43C3
:102EA0001A40028002880A43028070470146888ED9
:102EB00070470146088F70470146888F704701466A
:102EC000B1F8400070470146888C70470146088D74
:102ED000704702460020138A0B400BB1012000E02E
:102EE00000207047CA430282704730B50246002076
:102EF00000230024158A05EA0103958905EA0104E7
:102F000013B10CB1012000E0002030BDCA430282A1
:102F1000704770477047704770477047754600F0BC
:102F200029F8AE4605006946534620F0070085465D
:102F300018B020B5FEF7DCFABDE820404FF00006DF
:102F40004FF000074FF000084FF0000B21F0070191
:102F5000AC46ACE8C009ACE8C009ACE8C009ACE8D4
:102F6000C0098D4670470446AFF300802046FDF748
:102F700026F90000004870479402002021F000422A
:102F8000A2F16052B2F5801F01F0004328BFD2F1D8
:102F90007F6C0BD95FEA001C43EAC20242EB50701F
:102FA00018BF704728BF20F001007047B2F5801F9E
:102FB000BCBF184670474FEA410C1CF5001F02D2F7
:102FC000084600F09ABE70B500F042FB0000008990
:102FD000FFF7F6BF4FF00040A0F5800070470000FB
:102FE00010B591EA030F48BF83F0004300F18C83D2
:102FF000841A71EB030C05D2121943EB0C03001B6E
:1030000061EB0C01DFF824E14FEA1154A4EB135CEF
:103010001EEA430F18BF9EEA445F73D023EA0E03F3
:10302000DCF1200E21EA045143F4801332D322FA5A
:103030000CFE10EB0E0023FA0CFE41EB0E01CCF15E
:10304000200E03FA0EFE10EB0E0051F10001B1F557
:10305000801FCCF1200E32D201EB045112FA0EF295
:10306000BDE8104058BF7047401C38BF5FEA4202BD
:1030700018BF7047002814BF20F0010041F1000183
:103080004FEA410313F5001F38BF7047A1F1C0415B
:1030900000F02CBB012A43EB0302ACF1200CDCF165
:1030A0001F0E32BF4FF0000E23FA0CF310EB03009B
:1030B00041EB0451B4EB115FD0D0A1EB045101F509
:1030C000801149085FEA300001EB04510ED350F142
:1030D000000038BF12FA0EFE08D1BDE81040C9E763
:1030E000401C38BF5FEA4202CAD1C3E7BDE81040C6
:1030F0004FEA410313F5001F38BF7047A1F1C041EB
:1031000000F0F4BA9EEA445F08D011EA5E0FBDE811
:10311000104004BF01F0004100207047BDE810409E
:1031200070B500F095FA00BF64FBBE3E0000E0FF02
:10313000491058BFC1F140415B1058BFC3F1404333
:103140008B42EFF3008070472DE9C04130B4DFF8C7
:10315000A0C23CEA111418BF3CEA131400F0EC8042
:1031600081EA03051CEA111444EAD57418BF1CEA6D
:10317000131500F0C780A4EB05044FF0004545EAA5
:10318000C12145EAC32341EA505143EA525304F1B5
:103190007F74994204F500344FEAC0204FEAC222FE
:1031A00008BF904200F09C804FEA13650FF2401672
:1031B000765D4FEA134506FB05F7C7F1807706FBFE
:1031C00007F74FEAD737A7FB03687642C8F5803880
:1031D000A7FB06CE38BFA8F1010807FB08E64FF0B1
:1031E000000EA6FB028CE6FB03CEDCF1000CCEF158
:1031F000004E38BFAEF1010EA6FB0C584FF0000791
:103200004FF00005E6FB0E87A1FB08C6A0FB07CE2A
:1032100016EB0E0645F10005E1FB076515F1E04EE2
:103220007EBFA4F580345FEA46066D4116F1800743
:1032300045F100054FEA17274FEA066647EA05679A
:10324000A6F1DE46B6F1805F4FEA15251FD9384654
:1032500024F0010C05EBC471BCF1FE6F01EB0C1105
:1032600002D8F0BCBDE8008124425CBF01F5801E9D
:103270009EEAC47F02D4F0BCBDE80081244238D469
:10328000F0BCA1F1C041BDE8004100F02FBA4FEA07
:10329000D22242EA43524FEAD323A7FB02864FEAE7
:1032A000D02040EA415007FB03661EEA0E0F4FEAAA
:1032B000D12105FB026658BFA6EB0056B6EB0056BF
:1032C0004FEA520E4EEAC37E18EB0E0E56EB530E2B
:1032D000BDD518EB02085E417F1C55F10005B6E72D
:1032E0004FF480154FF000074FF000064FF0000834
:1032F000ADE7F0BC4FF0000001F1C04101F000412A
:10330000BDE8008111EA0C1F0CEA131500D00CE097
:1033100013EA0C1F00F025804FF00000F0BC81EA9A
:10332000030101F00041BDE80081F0BCBDE80041AF
:1033300081EA030100F0DAB9F0BCBDE8004170B5E4
:1033400000F086F9097EFC3E00F007B881EA03012F
:103350004FF0000001F00041704781EA030100F0E6
:10336000C5B9F0BCBDE800414FF0000021497047ED
:10337000FFFDFBF9F7F5F4F2F0EEEDEBE9E8E6E43A
:10338000E3E1E0DEDDDBDAD8D7D5D4D3D1D0CFCDC1
:10339000CCCBCAC8C7C6C5C4C2C1C0BFBEBDBCBBFA
:1033A000BAB9B8B7B6B5B4B3B2B1B0AFAEADACABF5
:1033B000AAA9A8A8A7A6A5A4A3A3A2A1A09F9F9ECF
:1033C0009D9C9C9B9A999998979796959594939381
:1033D000929191908F8F8E8E8D8C8C8B8B8A898918
:1033E000888887878685858484838382828181809B
:1033F0000000FF070000F87F51EA030C17D41CF50A
:10340000801F58BFBCF5801F00F10680994218BF8D
:10341000704708BF9042704707D711F5801F58BF0B
:1034200013F5801F19D499427047894270471CF5E3
:10343000801F08D5BCF5801FF7D58B4218BF704799
:1034400008BF824270474FF4001C1CEB410F38BF8D
:103450001CEB430F01D28B42704770B500F0F8F8B7
:10346000922449004FF000514FF08053FFF760BEA7
:103470004FEA41034FEA5353A3F58063D3F11E0390
:10348000C8BFD3F1210C0CDD4FF0004242EAC1224B
:1034900042EA505232FA03FC8CEAE17CACEBE17078
:1034A0007047102BC4BF0020704703F5787CBCF137
:1034B000FF3F04D06FF0004282EA2100704770B5F0
:1034C00000F0C6F84992248000207047F2E710F01F
:1034D000004248BF4042B0FA80F310FA03F10AD02C
:1034E000C3F11D0303F580634FEA415002EB035221
:1034F00002EBD12170474FF000007047DFF848C160
:1035000070B51CEA111E1EBF1CEA13159EEA0C0FB3
:1035100095EA0C0F00F06F8081EA030423EA4C1354
:103520004EEAD47E21EA4C1141F4801143F4801319
:10353000AE44A1FB024CA0FB0365AEF17F7E3619C1
:1035400055EB0C05A1FB034C4CF10003A0FB021C46
:1035500016EB0C06654153F10003094218BF46F013
:10356000010613F4007F0BD14FEA03314FEA053017
:10357000340341EA155140EA16506FF003020AE0A5
:103580004FEAC3214FEAC520F40241EA555140EA0F
:1035900056506FF0020202EB2E4201EB025585EA13
:1035A000CE710AD05FEA440C18BF24F0004450F1F9
:1035B000000041F1000120EAD47040F2FE7C624537
:1035C00000D270BDA84214BF4FF080444FF0404479
:1035D000002E08BF0024BEF1806FA8BFA1F1C0413A
:1035E000BDE8704080F282804FF0000001F1C041E0
:1035F00001F0004170479EEA0C0F0CEA131518BF4A
:1036000095EA0C0F06D04FF0000081EA030E0EF091
:10361000004170BD00F01CF88900013E00F007B8C1
:1036200000F009B84FEA430C5FEA5C5C08D081EA1D
:10363000030100F05BB84FEA410C5FEA5C5CF6D135
:103640004FF00000014970470000FF070000F87FBD
:103650000EF1020E2EF0030E5EF8046B364205D416
:10366000012A43EB030515F5001F12D8012841EB91
:10367000010C1CF5001F0CD80ED14FEAD17C15F5BA
:10368000001F0CEB4C0C0CF1020C08BF4CEBD37C74
:1036900004E04FF0080C01E04FEAD37C0CEB4C0542
:1036A00026FA05F606F00706B6F1040C06D20EEB74
:1036B000860CBDE870404CF0010C6047DFE80CF070
:1036C000090B02024FF000414FF00000A1F500216C
:1036D00070BD19461046012851EB010418BFD4F5FE
:1036E000001484BF002001F0004170BD0808A0F55F
:1036F00000114FEA3101704710B591EA030F48BF3E
:1037000083F000433FF574AC841A71EB030C07D2CD
:1037100012198CF0004C43EB0C03001B61EB0C0105
:10372000DFF8A4E14FEA1154A4EB135C1EEA430F47
:1037300018BF9EEA445F00F0B08023EA6E03524255
:1037400021EA0451C3EB6E0338BF5B1EDCF1200E8F
:1037500025D322FA0CFE10EB0E0043FA0CFE41EBCF
:103760000E01CCF1200E03FA0EFE10EB0E0051F10B
:103770000001CCF1200E29D412FA0EF201EB045113
:10378000BDE8104058BF7047401C1CBFB2F1004F4D
:10379000704700280CBF491C20F00100704712EB55
:1037A000020E43EB030218BF4FF0010E4EEA420235
:1037B000ACF1200CDCF11E0E54D943FA0CFE10EBD8
:1037C0000E0051F1FF31CCF11E0ED5D50EF1010ED8
:1037D00012FA0EFE404141EB010101EB445C5FEA4D
:1037E0005C5C10D910EBDE7001EB045138BFBEF108
:1037F000004FBDE8104018BF704700280CBF491C9F
:1038000020F00100704730D24FEAD42C11F500119E
:1038100024F400641BD0B1FA81F20B3AA41AA41E5E
:10382000D2F12003914030FA03F31943904001EBA9
:10383000CC71002C01EB0451BDE81040A8BF7047CB
:1038400001F1C0414FF0000001F000417047B0FAB3
:1038500080F310FA03F100D110BDE41A173C4805BB
:10386000C90AE4E701EB045110BD491001EB045112
:10387000BDE810404FEA300002E04FF00001704711
:103880004A0008BF0042F8D0B2F5001F28BF7047B9
:1038900001F000414FF0000070479EEA445F07D0FE
:1038A00011EA5E0FBDE8104004BF00210020704700
:1038B000BDE8104070B5FFF7CBFE00BF40DFF63E1D
:1038C00083F00041104670470000E0FF43004FEADC
:1038D000D30C4FEA3C0C43401FBF40070CF1605132
:1038E00013F0FE4F70471CF0006F03D100200CF066
:1038F000004170470CF0004343EA507010B540EAB5
:10390000CC0000F0B4F900BF000000924FEA0001C3
:10391000FFF7ECBE4FF000414FF00000A1F5002191
:103920007047000090EA010F48BF81F0004100F1AC
:10393000F081421A3CBF801A89184FEAD0524FF0EA
:103940007F4C1CEA410FA2EBD15318BF9CEA026FD7
:1039500000F03B804FF0004C4CEA00204CEA012183
:1039600021FA03FC10EB0C0C1ED202F1FF325FEACD
:103970001C2040EBC25038BF70471CF07F0F4FEA4D
:10398000400C18BFBCF17F4F38BF7047C3F1200314
:10399000994008BF20F00100BCF17F4F38BF70474D
:1039A000A0F1C04000F0A9B94FEA3C00000A40EB8A
:1039B000C25028BF1CF0FF0F4FEA400CE6D018BFE2
:1039C000BCF17F4F38BF7047EAE79CEA026F05D031
:1039D00010EA5C0F08BF00F00040704710B500F01F
:1039E00046F900BF64FBBE3E4FF47F0C1CEAD012C8
:1039F0001EBF1CEAD11392EA0C0F93EA0C0F00F0E1
:103A0000858090EA010F48BF42F4807240F4000CB8
:103A100041F400002CF07F4120F07F4000B581424E
:103A2000A2EB03020FF2081CACEB504EC0F10000F9
:103A30009EF800E04FEA4E0E00FB0EFC38BF490036
:103A40004FEA2C1C02F5FA020CFB0EF34FEACE1ED5
:103A50004FEA112C4FEAC1210EEB635E42EB22428A
:103A60000EFB0CFC4FEA1C5300FB03114FEA112C18
:103A70004FEA01310EFB0CFC4FEADC4C00FB0C1151
:103A8000C14228BF09184CEB03335DF804EB10EB7F
:103A9000410143EBC250B2F57C0F38BF704729D5C6
:103AA00012F0F00F1CBF00F1C04000F00040704762
:103AB000008182838485868788898B8C8D8E8F9107
:103AC0009293959697999A9C9D9FA0A2A3A5A7A82B
:103AD000AAACAEB0B2B3B5B7B9BCBEC0C2C5C7C957
:103AE000CCCED1D4D7D9DCDFE2E6E9ECF0F3F7FABB
:103AF000FE0000004FEA400C0CF1807CBCF17E4FD0
:103B000028BF7047B0F1C04000F0F7B890EA010F4D
:103B10000CEAD11348BF42F48072624538BF634556
:103B200007D213F47F0F16D080EA010000F00040A6
:103B3000704710B500F09BF8097EFC3E00F005B818
:103B400080EA010000F00040704780EA010000F0C8
:103B5000004000F0D2B812F47F0F04BF0248704753
:103B600080EA010000F0C9B80000C07F4FF47F0C6C
:103B70001CEAD0121EBF1CEAD11392EA0C0F93EA82
:103B80000C0F00F0478090EA010F48BF42F48072AA
:103B90004FF0004C4CEA00204CEA012102EB0302FA
:103BA000A0FB0113A2F50002002918BF43F0010396
:103BB0005B0028BF4FEA330342EB22425FEA132C3B
:103BC0004CEBC2502EBFBCEB436FB2F57C0F70477D
:103BD0004FEA036CBCF1004F08BF20F00100B2F5C2
:103BE0007C0F38BF70470BD582F0FF0212F5803F83
:103BF000C8BF704700F1C040D8BF00F00040704718
:103C000000F5000C5FEA4C0C48BF7047B0F1C040B3
:103C100000F073B890EA010F0CEAD11348BF42F4E8
:103C20008072624538BF634504D280EA010000F02B
:103C30000040704710B500F01AF800BF8900013E3F
:103C400000F007B800F009B85FEA410C5FEA1C6CAD
:103C500008D080EA010000F050B85FEA400C5FEA4B
:103C60001C6CF6D14FF00040A0F5800070470EF1BB
:103C7000020E2EF0030E5EF8044B244204D44FEAE9
:103C80004102B2F17F4F11D84FEA4003B3F17F4FA9
:103C90000CD80ED14FEAD07CB2F17F4F0CEB4C0C1C
:103CA0000CF1020C08BF4CEBD17C04E04FF0080C87
:103CB00001E04FEAD17C0CEB4C0324FA03F404F04E
:103CC0000704B4F1040C06D20EEB840CBDE81040DE
:103CD0004CF0010C6047DFE80CF0070802024FF0DF
:103CE0000040A0F5800010BD0846420018BFD2F188
:103CF000807288BF00F0004010BDFF2141EAD05023
:103D0000C005704790EA010F48BF81F000413FF5C0
:103D100010AE421A04D882F00042A0EB0200114417
:103D20004FEAD0524FF07F4C1CEA410FA2EBD15327
:103D300018BF9CEA026F4AD04FF0004C4CEA0020BA
:103D40004CEA012121FA03FCB0EB0C0C0FD412F069
:103D5000FE0F36D05FEA4C001DD5001240EBC2507A
:103D600038BF70471CF03F0F18BF70470BE0A2F13F
:103D700001025FEA1C2040EBC25038BF70471CF0C4
:103D80007F0F18BF7047C3F12003994014BF401E36
:103D900020F00100704780084FEA122308BF7047E7
:103DA000B0FA80FCA2EB0C02CCF1280C60FA0CF00B
:103DB00093EA122F04BF00EBC25070474FEAC37062
:103DC0007047130A5FEADC1008BF7047F6E79CEA09
:103DD000026F04D010EA5C0F08BF0020704710B5D6
:103DE000FFF745FF40DFF63E81F0004070470000DE
:103DF000103E000800000020580000006C01000880
:103E0000683E000858000020A00800008801000853
:103E10000000000000A24A040000000000000000B2
:103E2000010203040607080900000000000000006A
:103E30000000000000000000000000000000000082
:103E40000000000000000000000000000000000072
:103E50000000000000000102030401020304060741
:083E6000080902040608000035
:0400000508000131BD
:00000001FF
